:020000040800F2
:1000000000500020C91A00080D1900081319000833
:10001000191900081F190008251900080000000020
:100020000000000000000000000000002B19000884
:100030003719000800000000431900084F19000894
:10004000111B0008111B0008111B0008111B0008E0
:10005000111B0008111B0008111B0008111B0008D0
:10006000111B0008111B0008111B0008111B0008C0
:10007000111B0008111B0008111B0008111B0008B0
:10008000111B0008111B0008111B0008111B0008A0
:10009000111B0008111B0008111B0008111B000890
:1000A000111B0008111B0008111B0008111B000880
:1000B0005D190008111B0008111B0008111B000826
:1000C000111B0008111B0008111B0008111B000860
:1000D000111B0008111B0008111B0008111B000850
:1000E000111B0008111B0008111B00080000000074
:1000F0000000000000000000000000000000000000
:0C01000000000000000000005FF808F1A3
:10010C0010B5054C237833B9044B13B10448AFF345
:10011C0000800123237010BD90000020000000001F
:10012C000843000808B5034B1BB103490348AFF360
:10013C00008008BD00000000940000200843000867
:10014C0080B500AF00224FF48061054801F0E7FF55
:10015C0001220821034801F0E2FF00BF80BD00BF6F
:10016C0000080140000C014080B500AF01224FF4A3
:10017C008061054801F0D3FF00220821034801F0FB
:10018C00CEFF00BF80BD00BF00080140000C014045
:10019C0080B500AF01224FF48061054801F0BFFF2C
:1001AC0001220821034801F0BAFF00BF80BD00BF47
:1001BC0000080140000C014080B500AF0022202156
:1001CC00044801F0ACFF01221021024801F0A7FF06
:1001DC0000BF80BD000C014080B500AF0122202182
:1001EC00044801F09CFF00221021024801F097FF07
:1001FC0000BF80BD000C014080B500AF0122202162
:10020C00044801F08CFF01221021024801F087FF05
:10021C0000BF80BD000C014080B500AF00224FF440
:10022C008061054801F07BFF01224FF48071034887
:10023C0001F075FF00BF80BD000C014000080140BB
:10024C0080B500AF00224FF48061054801F067FFD4
:10025C0000224FF48071034801F061FF00BF80BDA4
:10026C00000C01400008014080B500AF314B1B6809
:10027C00314A93420BD0304A934252DC032B3CD090
:10028C00032B4EDC012B10D0022B22D049E0294B42
:10029C0001221A60294B1B68294A82FB0312521156
:1002AC00DB17D31A274A136042E0FFF749FF254BAF
:1002BC001B68002B37D11F4B02221A60224B1B6884
:1002CC001F4A82FB03125211DB17D31A1D4A13600B
:1002DC0029E0FFF749FF1B4B1B68002B25D1154B61
:1002EC0003221A60194B1B68154A82FB0312521128
:1002FC00DB17D31A134A136017E0FFF749FF114BB2
:10030C001B68002B13D10B4B01221A600B4B1B6883
:10031C000B4A82FB03125211DB17D31A094A1360E2
:10032C0005E000BF04E000BF02E000BF00E000BF3A
:10033C0000BF80BD00000020225B60011000002087
:10034C001F85EB51C4000020140000201800002071
:10035C0080B500AF314B1B68314A93420BD0304A09
:10036C00934252DC032B3CD0032B4EDC012B10D0E0
:10037C00022B22D049E0294B02221A60294B1B6820
:10038C00294A82FB03125211DB17D31A274A136036
:10039C0042E0FFF711FF254B1B68002B37D11F4B99
:1003AC0002221A601F4B1B681F4A82FB0312521158
:1003BC00DB17D31A1D4A136029E0FFF70DFF1B4B07
:1003CC001B68002B25D1154B03221A60184B1B6898
:1003DC00154A82FB03125211DB17D31A134A13600E
:1003EC0017E0FFF709FF114B1B68002B13D10B4BC8
:1003FC0001221A600F4B1B680B4A82FB031252112D
:10040C00DB17D31A094A136005E000BF04E000BFF4
:10041C0002E000BF00E000BF00BF80BD0400002070
:10042C00225B6001140000201F85EB51C8000020E6
:10043C00180000201000002080B500AF3A4B1B685C
:10044C003A4A93420BD0394A934263DC632B63D014
:10045C00632B5FDC1F2B0BD0202B33D05AE0324B9D
:10046C0063221A60324B00221A60FFF7E9FE58E053
:10047C00FFF7D2FE2F4B1B68012B0FD11F2000F072
:10048C00B3FC2B4B1B68184600F090FC284B1B68E8
:10049C00013B274A1360642001F0B4FA244B1B681B
:1004AC00002B3BD1204B20221A60234B1B68234A84
:1004BC0082FB03125211DB17D31A1D4A1360FFF78C
:1004CC00BFFE2BE000224FF480611D4801F027FE97
:1004DC0001224FF480711B4801F021FE154B1B6863
:1004EC00012B0FD1202000F07FFC114B1B6818460C
:1004FC0000F05CFC0E4B1B68013B0D4A1360642042
:10050C0001F080FA0A4B1B68002B09D1064B074AF5
:10051C001A6005E000BF04E000BF02E000BF00E08D
:10052C0000BF00BF80BD00BF08000020225B60013F
:10053C00CC000020E0000020100000201F85EB51B3
:10054C00000C01400008014080B500AF884B1B68CF
:10055C00884A934200F0F380864A934200F32F833B
:10056C00172B23DC0B2BC0F22A830B3B0C2B00F23A
:10057C00268301A252F823F0B50700089908000859
:10058C007D090008CB0B0008CB0B0008CB0B000837
:10059C00CB0B0008CB0B0008CB0B0008CB0B0008D7
:1005AC006D0A0008DB0A0008530B0008642B40F0AE
:1005BC000683714B1B68012B16D1704B1B681846B8
:1005CC0000F04EFC6E4B1B68184600F067FC6B4B42
:1005DC001B68013B694A1360694B1B68013B684A05
:1005EC001360642001F0FAF9664B1B68012B28D1CB
:1005FC00644B00221A60644B63221A60634B6322C3
:10060C001A60634B63221A60594B0B221A606420E8
:10061C0001F0E4F9594B0B221A605E4B1B685E4AE1
:10062C0082FB03125211DB17D31A554A13605B4B32
:10063C001B68594A82FB03125211DB17D31A584A12
:10064C001360504B5B68012B32D14E4B00225A6029
:10065C0000F094FB4C4B1B68032B0AD0032B10DCD3
:10066C00012B02D0022B08D00BE0414B16221A6052
:10067C0008E03F4B15221A6004E03D4B17221A602C
:10068C0000E000BF642001F0A9F9444B1B68424A0A
:10069C0082FB03125211DB17D31A384A13603A4B00
:1006AC0063221A60394B63221A60394B63221A6039
:1006BC00344BDB68012B40F08482324B0022DA6031
:1006CC00314B1B68012B0CD1314B20221A60FFF7E8
:1006DC00A3FD642001F096F9284B1B68013B304ABE
:1006EC001360294B1B68022B15D1294B1F221A6052
:1006FC00FFF792FD642001F085F92A4B1B68264A0E
:10070C0082FB03125211DB17D21A1C4B1B681344C9
:10071C00013B234A13601C4B1B68032B0CD11C4B55
:10072C001F221A60FFF78CFD642001F06BF9134B4C
:10073C001B68013B1A4A136000F020FB41E20D4894
:10074C0000F052FB00F0C8FB154B00221A6064202D
:10075C0001F044F90C4B074A1A600C4B054A1A601D
:10076C000B4B044A1A60024B64221A6030E200BF41
:10077C000C000020225B6001D8000020C400002087
:10078C00C8000020F8000020000000200400002019
:10079C0008000020100000201F85EB511C000020D9
:1007AC00CC00002018000020FFF7CAFCFFF704FD66
:1007BC009F4B1B68012B16D19E4B1B68184600F0F3
:1007CC0013FB9D4B1B68184600F02CFB9B4B1B68C6
:1007DC00184600F0EBFA994B1B68013B974A1360E3
:1007EC00642001F0FBF8944B1B68632B02DD924BE9
:1007FC0000221A60904B1B68642202FB03F3904AA0
:10080C001360904B1B68012B1FD18E4B00221A607A
:10081C008D4B1B688D4A82FB03125211DB17D31AC6
:10082C00854A1360834B0C221A60894B0C221A6088
:10083C00642001F0D3F8874B1B68844A82FB0312B7
:10084C005211DB17D31A7D4A13607E4B5B68012B68
:10085C0007D17C4B00225A60774B1B680133764AD8
:10086C001360784B9B68012B07D1764B00229A6062
:10087C00714B1B68013B704A1360704B1B68002B5B
:10088C0040F0A181724B744A1A609CE1684B1B6862
:10089C00012B16D1674B1B68184600F0A5FA664B66
:1008AC001B68184600F0BEFA644B1B68184600F033
:1008BC007DFA624B1B68013B604A1360642001F0B7
:1008CC008DF8FFF751FCFFF787FC5B4B1B68632B24
:1008DC0002DD594B00221A60574B1B68642202FB45
:1008EC0003F3594A1360574B1B68012B1FD1554B0F
:1008FC0000221A60594B1B68544A82FB0312521196
:10090C00DB17D31A4C4A1360514B0D221A60494B1A
:10091C000D221A60642001F061F84E4B1B684B4AA3
:10092C0082FB03125211DB17D31A444A1360454B56
:10093C005B68012B07D1434B00225A603E4B1B686E
:10094C0001333D4A13603F4B9B68012B07D13D4B54
:10095C0000229A60384B1B68013B374A1360374BB7
:10096C001B68002B40F03181394B3B4A1A602CE15B
:10097C002F4B1B68012B16D12E4B1B68184600F011
:10098C0033FA2D4B1B68184600F04CFA2B4B1B68A6
:10099C00184600F00BFA642001F020F8274B1B6876
:1009AC00013B264A1360FFF7F3FBFFF725FC224BB4
:1009BC001B68632B02DD204B03221A601E4B1B6845
:1009CC00022B02DC1C4B03221A601B4B1B6864229B
:1009DC0002FB03F3214A13601A4B1B68012B05D150
:1009EC00184B00221A601A4B1B4A1A60154B5B6895
:1009FC00012B07D1134B00225A600F4B1B6801339C
:100A0C000D4A13600F4B9B68012B07D10D4B002235
:100A1C009A60094B1B68013B074A1360074B1B6824
:100A2C00002B40F0D4800A4B0B4A1A60CFE000BF79
:100A3C00D8000020C4000020C8000020CC000020FA
:100A4C0010000020F8000020140000201F85EB513E
:100A5C000C0000201C000020225B6001180000200C
:100A6C005C4B1B68012B0FD15B4B1B68013B5A4A3B
:100A7C001360152000F0B8F9574B1B68184600F0AE
:100A8C0095F9642000F0AAFF544B5B68012B12D13E
:100A9C00524B00225A60524B16221A60642000F00E
:100AAC009DFF504B1B68504A82FB03125211DB17FF
:100ABC00D31A494A1360484B1B68002B02D1484B90
:100ACC004A4A1A60FFF788FBFFF73AFB80E0414B7C
:100ADC001B68012B0FD1404B1B68013B3E4A136036
:100AEC00162000F081F93C4B1B68184600F05EF9AB
:100AFC00642000F073FF394B5B68012B17D1374B27
:100B0C0000225A60364B17221A60642000F066FFF0
:100B1C00344B1B68184600F089FF324B1B68324A75
:100B2C0082FB03125211DB17D31A2B4A13602A4B88
:100B3C001B68002B02D12A4B2C4A1A60FFF73CFB96
:100B4C00FFF712FB44E0234B1B68012B0FD1224B08
:100B5C001B68013B204A1360172000F045F91E4B1F
:100B6C001B68184600F022F9642000F037FF1B4B7D
:100B7C005B68012B17D1194B00225A60184B1522B8
:100B8C001A60642000F02AFF164B1B68184600F010
:100B9C004DFF144B1B68144A82FB03125211DB17D6
:100BAC00D31A0D4A13600C4B1B68002B02D10C4B53
:100BBC000E4A1A60FFF700FBFFF7EAFA08E000BFE5
:100BCC0006E000BF04E000BF02E000BF00E000BF91
:100BDC0000BF80BDD8000020C4000020F800002019
:100BEC000C0000201C0000201F85EB51225B6001D3
:100BFC0080B483B000AF0346FB71FB79044A01213A
:100C0C0042F8231000BF0C37BD4680BC704700BFB4
:100C1C00F800002090B583B000AF0023FB7194E086
:100C2C00FA79FB794D49895C4D4AD154FA79FB79B3
:100C3C004C49895C494AD154FB79032B33D801A226
:100C4C0052F823F0610C0008750C0008890C0008A0
:100C5C009D0C0008FC790221434801F049FA034637
:100C6C001A46404B1A5523E0FC7910213E4801F0FE
:100C7C003FFA03461A463B4B1A5519E0FC79012101
:100C8C003A4801F035FA03461A46364B1A550FE02E
:100C9C00FC794FF40051364801F02AFA03461A4603
:100CAC00304B1A5504E0FB792E4A0121D15400BF78
:100CBC00FB792B4AD25CFB792849CB5C9A4241D117
:100CCC00FB79264AD25CFB792649CB5C9A4239D116
:100CDC00FB79284AD25CFB792249CB5C9A4214D02E
:100CEC00FA79FB791F49895C224AD154FB79214A54
:100CFC00D35C002B26D1FB791F4A642122F81310F8
:100D0C00FB791846FFF774FF1CE0FB791A4A32F89E
:100D1C001320013A91B2184A22F81310FB79164AA3
:100D2C0032F81330002B0DD1FB79124AD35C002B17
:100D3C0008D1FB79104A642122F81310FB7918466C
:100D4C00FFF756FFFB790133FB71FB79032B7FF621
:100D5C0067AF00BF00BF0C37BD4690BDB40000208C
:100D6C00B0000020B800002000080140000C014039
:100D7C0000100140AC000020BC00002080B588B001
:100D8C0000AF3B460749184602F07EFE03469AB276
:100D9C0039464FF47A73044802F0D9FC00BF20376F
:100DAC00BD4680BD20430008AC01002080B58CB04E
:100DBC0000AF78607B68FB6207F10C03FA6A0849A4
:100DCC00184602F061FE03469AB207F10C014FF48B
:100DDC007A73044802F0BBFC00BF3037BD4680BDBF
:100DEC0028430008AC01002080B58CB000AF7860BF
:100DFC007B68FB6207F10C03FA6A0849184602F09B
:100E0C0043FE03469AB207F10C014FF47A7304487F
:100E1C0002F09DFC00BF3037BD4680BD4443000846
:100E2C00AC01002080B58CB000AF78607B68FB62B1
:100E3C0007F10C03FA6A0849184602F025FE03462E
:100E4C009AB207F10C014FF47A73044802F07FFC5C
:100E5C0000BF3037BD4680BD50430008AC010020B8
:100E6C0080B58CB000AF78607B68FB6207F10C0337
:100E7C00FA6A0849184602F007FE03469AB207F1CF
:100E8C000C014FF47A73044802F061FC00BF303758
:100E9C00BD4680BD5C430008AC01002080B58CB021
:100EAC0000AF78607B68FB6207F10C03FA6A0849B3
:100EBC00184602F0E9FD03469AB207F10C014FF413
:100ECC007A73044802F043FC00BF3037BD4680BD46
:100EDC0068430008AC01002080B588B000AF104B0F
:100EEC001A68104B1B681A440F4B1B689A4213D09C
:100EFC003B460E49184602F0C7FD03469AB23946E6
:100F0C004FF47A730A4802F022FC054B1A68054B21
:100F1C001B681344044A136000BF2037BD4680BDD4
:100F2C00140000201800002010000020744300085A
:100F3C00AC01002080B500AF00F0E6FD00F04CF8ED
:100F4C0000F072F900F070F900F082F800F042F94C
:100F5C0000F0CAF8184801F065FD00F03FFA642073
:100F6C0000F03CFD642000F04DFD0A2214211348D2
:100F7C0000F040FA0A221421114800F03BFA0A2230
:100F8C000A21104800F036FA0A2214210E4800F00B
:100F9C0031FA0A2214210D4800F02CFA0A221421ED
:100FAC000B4800F027FA0A2214210A4800F022FA12
:100FBC0000F0E6FAFCE700BF64010020611A0008AB
:100FCC00951A0008210C0008750200085D03000842
:100FDC00550500084504000880B590B000AF07F136
:100FEC00180328220021184602F046FD3B1D002262
:100FFC001A605A609A60DA601A610223BB6101239D
:10100C00BB621023FB6200237B6307F118031846B5
:10101C0001F09EF80346002B01D000F0DAF90F2303
:10102C007B600023BB600023FB6000233B6100233B
:10103C007B613B1D0021184601F00AFB0346002B87
:10104C0001D000F0C6F900BF4037BD4680BD00009E
:10105C0080B586B000AF07F1080300221A605A6011
:10106C009A60DA603B4600221A605A601D4B4FF0C2
:10107C0080421A601B4B41F63F725A60194B00229A
:10108C009A60184B0922DA60164B00221A61154B34
:10109C0000229A61134801F075FC0346002B01D025
:1010AC0000F097F94FF48053BB6007F10803194621
:1010BC000C4801F027FF0346002B01D000F089F902
:1010CC0000233B6000237B603B461946054802F039
:1010DC0081FA0346002B01D000F07BF900BF1837D2
:1010EC00BD4680BD6401002080B58EB000AF07F115
:1010FC00280300221A605A609A60DA6007F1200314
:10110C0000221A605A603B1D00221A605A609A60D5
:10111C00DA601A615A619A612C4B2D4A1A602B4B7A
:10112C0000225A60294B00229A60284B4FF6FF721E
:10113C00DA60264B00221A61244B00229A61234864
:10114C0001F020FC0346002B01D000F042F94FF4D3
:10115C008053BB6207F1280319461C4801F0D2FEEC
:10116C000346002B01D000F034F9184801F0ACFC18
:10117C000346002B01D000F02CF900233B62002326
:10118C007B6207F120031946104802F023FA03464C
:10119C00002B01D000F01DF960237B600023BB60A5
:1011AC000023FB6000237B613B1D0022194607488E
:1011BC0001F0EAFD0346002B01D000F00AF90348C8
:1011CC0000F022FB00BF3837BD4680BD1C0100205B
:1011DC000004004080B500AF114B124A1A60104B4E
:1011EC004FF416525A600E4B00229A600C4B0022A0
:1011FC00DA600B4B00221A61094B0C225A61084B26
:10120C0000229A61064B0022DA61054802F052FA7C
:10121C000346002B01D000F0DCF800BF80BD00BFFE
:10122C00AC0100200044004080B588B000AF07F14D
:10123C00100300221A605A609A60DA60594B9B695D
:10124C00584A43F010039361564B9B6903F010030B
:10125C00FB60FB68534B9B69524A43F00403936158
:10126C00504B9B6903F00403BB60BB684D4B9B69FF
:10127C004C4A43F0080393614A4B9B6903F0080303
:10128C007B607B6800220221474800F048FF002267
:10129C004FF48761454800F042FF00224FF4A061F3
:1012AC00434800F03CFF4FF400533B6100237B614B
:1012BC000023BB6107F1100319463B4800F094FD75
:1012CC0002233B6101237B610123BB610223FB6190
:1012DC0007F110031946344800F086FD02233B61E8
:1012EC0000237B610123BB6107F1100319463048D1
:1012FC0000F07AFD10233B6100237B610023BB616E
:10130C0007F1100319462A4800F06EFD01233B61DA
:10131C0000237B610123BB6107F1100319462348AD
:10132C0000F062FD4FF486633B6101237B61002377
:10133C00BB610223FB6107F1100319461B4800F047
:10134C0053FD4FF480733B6101237B610023BB6130
:10135C000223FB6107F110031946154800F044FD08
:10136C004FF480633B6101237B610123BB6102234A
:10137C00FB6107F1100319460D4800F035FD0823F9
:10138C003B6101237B610123BB610223FB6107F1FC
:10139C0010031946054800F027FD00BF2037BD4655
:1013AC0080BD00BF0010024000100140000C014045
:1013BC000008014080B582B000AF78607B681B6884
:1013CC00B3F1804F01D100F067F800BF0837BD467C
:1013DC0080BD80B400AF72B600BFFEE780B400AF32
:1013EC00034B00221A7000BFBD4680BC704700BF83
:1013FC00D000002080B485B000AFF860B9607A608E
:10140C00224B1B78272B3CD8204B1B781946204AA3
:10141C000B469B000B449B001344FA681A601B4B51
:10142C001B781846BB681B4AA2FB0323DA08184931
:10143C0003469B0003449B000B4404331A60134B7C
:10144C001B7818467B68134AA2FB0323DA08104961
:10145C0003469B0003449B000B4408331A600B4B60
:10146C001B7819460A4A0B469B000B449B001344FD
:10147C000C3300221A70054B1B780133DAB2034B84
:10148C001A7000BF1437BD4680BC7047D0000020D6
:10149C00F4010020CDCCCCCC80B483B000AF0023C1
:1014AC007B605DE034497A6813469B0013449B00D3
:1014BC000B4404331B68002B12D02F497A68134657
:1014CC009B0013449B000B4404331B68591E2A4891
:1014DC007A6813469B0013449B0003440433196041
:1014EC0025497A6813469B0013449B000B44043334
:1014FC001B68002B31D120497A6813469B0013449A
:10150C009B000B440C331B780133D8B21A497A6810
:10151C0013469B0013449B000B440C3302461A7079
:10152C0015497A6813469B0013449B000B440833FF
:10153C001B68002B11D010497A6813469B0013448A
:10154C009B000B44083319680B487A6813469B00C0
:10155C0013449B000344043319607B6801337B60A4
:10156C00064B1B781A467B6893429BDB00BF00BF7F
:10157C000C37BD4680BC7047F4010020D000002021
:10158C0080B582B000AF00237B6051E02E497A68B1
:10159C0013469B0013449B000B440C331B78002B0D
:1015AC0043D029497A6813469B0013449B000B4493
:1015BC000C331B78013BD8B223497A6813469B0045
:1015CC0013449B000B440C3302461A701E497A6874
:1015DC0013469B0013449B000B441B6898471A4905
:1015EC007A6813469B0013449B000B4404331B681E
:1015FC00002B1AD114497A6813469B0013449B00A4
:10160C000B4408331B68002B0FD10F497A68134623
:10161C009B0013449B000B440C331B78002B04D110
:10162C007B68DBB2184600F013F87B6801337B60F3
:10163C00064B1B781A467B689342A7DB00BF00BFA2
:10164C000837BD4680BD00BFF4010020D00000204B
:10165C0080B485B000AF0346FB71344B1B78FA792C
:10166C009A425DD2FB79FB604DE0FB685A1C304915
:10167C0013469B0013449B000B4419682C48FA68D2
:10168C0013469B0013449B0003441960FB685A1CCF
:10169C00274913469B0013449B000B4404331968E1
:1016AC002348FA6813469B0013449B0003440433FD
:1016BC001960FB685A1C1E4913469B0013449B007F
:1016CC000B44083319681A48FA6813469B001344F4
:1016DC009B00034408331960FB685A1C14491346D9
:1016EC009B0013449B000B440C3318781049FA6888
:1016FC0013469B0013449B000B440C3302461A7098
:10170C00FB680133FB60094B1B78013BFA689A427A
:10171C00ABDB064B1B78013BDAB2044B1A7000E0D2
:10172C0000BF1437BD4680BC704700BFD0000020FE
:10173C00F401002080B485B000AF154B9B69144AAE
:10174C0043F001039361124B9B6903F00103BB60EF
:10175C00BB680F4BDB690E4A43F08053D3610C4BD3
:10176C00DB6903F080537B607B680A4B5B68FB6032
:10177C00FB6823F0E063FB60FB6843F00073FB60E5
:10178C00044AFB68536000BF1437BD4680BC7047E9
:10179C00001002400000014080B584B000AF7860BA
:1017AC007B681B68B3F1804F14D1154BDB69144A6D
:1017BC0043F00103D361124BDB6903F00103FB60BF
:1017CC00FB68002200211C2000F0D7FA1C2000F03E
:1017DC00F0FA10E07B681B680A4A93420BD1084B65
:1017EC00DB69074A43F00203D361054BDB6903F065
:1017FC000203BB60BB6800BF1037BD4680BD00BF95
:10180C00001002400004004080B588B000AF786042
:10181C0007F1100300221A605A609A60DA607B6844
:10182C001B680F4A934217D10E4B9B690D4A43F02C
:10183C00040393610B4B9B6903F00403FB60FB688F
:10184C0040233B6102237B610223FB6107F1100300
:10185C001946054800F0C8FA00BF2037BD4680BDC8
:10186C0000040040001002400008014080B588B020
:10187C0000AF786007F1100300221A605A609A607A
:10188C00DA607B681B681B4A93422FD11A4BDB69C9
:10189C00194A43F40033D361174BDB6903F400336B
:1018AC00FB60FB68144B9B69134A43F00403936180
:1018BC00114B9B6903F00403BB60BB6804233B61C1
:1018CC0002237B610323FB6107F1100319460B48CC
:1018DC0000F08AFA08233B6100237B610023BB6183
:1018EC0007F110031946054800F07EFA00BF2037B7
:1018FC00BD4680BD0044004000100240000801407D
:10190C0080B400AFFEE780B400AFFEE780B400AF58
:10191C00FEE780B400AFFEE780B400AFFEE780B412
:10192C0000AF00BFBD4680BC704780B400AF00BFA5
:10193C00BD4680BC704780B400AF00BFBD4680BCC4
:10194C00704780B500AF00F025F900BF80BD0000E6
:10195C0080B500AF024801F00FF900BF80BD00BF99
:10196C006401002080B586B000AF7860144A154B36
:10197C00D31A7B617B693B61134B1B68002B02D133
:10198C00114B124A1A60104B1A687B6813443A695F
:10199C009A4207D202F046F803460C221A604FF026
:1019AC00FF3309E0084B1B68FB60074B1A687B6828
:1019BC001344054A1360FB6818461837BD4680BDB2
:1019CC000050002000040000D40000202805002056
:1019DC0080B400AF00BFBD4680BC704780B483B0FC
:1019EC0000AF7860054A7B681360054B00221A60D3
:1019FC0000BF0C37BD4680BC704700BFDC00002028
:101A0C00D800002080B483B000AF7860054A7B68B2
:101A1C001360054B00221A6000BF0C37BD4680BC1A
:101A2C00704700BFE4000020E000002080B483B0C9
:101A3C0000AF7860054B00221A60054A7B68136082
:101A4C0000BF0C37BD4680BC704700BFE8000020CB
:101A5C00EC00002080B400AF094B1B68002B0BDDA1
:101A6C00074B1B68013B064A1360054B1B68002B98
:101A7C0002DC044B01221A6000BFBD4680BC7047DB
:101A8C00DC000020D800002080B400AF094B1B689C
:101A9C00002B0BDD074B1B68013B064A1360054B03
:101AAC001B68002B02DC044B01221A6000BFBD46F0
:101ABC0080BC7047E4000020E00000200C480D4979
:101ACC000D4A002302E0D458C4500433C4188C428D
:101ADC00F9D30A4A0A4C002301E013600432A242F3
:101AEC00FBD3FFF775FF01F0A3FFFFF723FA704755
:101AFC000000002090000020EC4300089000002023
:101B0C0028050020FEE7000080B500AF084B1B68DD
:101B1C00074A43F010031360032000F023F90F2051
:101B2C0000F008F8FFF706FE0023184680BD00BF42
:101B3C000020024080B582B000AF7860124B1A686A
:101B4C00124B1B7819464FF47A73B3FBF1F3B2FBCB
:101B5C00F3F3184600F03BF90346002B01D00123A8
:101B6C000EE07B680F2B0AD8002279684FF0FF300B
:101B7C0000F003F9064A7B681360002300E00123A0
:101B8C0018460837BD4680BD2000002028000020E4
:101B9C002400002080B400AF054B1B781A46054B7F
:101BAC001B681344034A136000BFBD4680BC7047DA
:101BBC00280000201405002080B400AF024B1B68E5
:101BCC001846BD4680BC70471405002080B485B013
:101BDC0000AF78607B6803F00703FB600C4BDB689D
:101BEC00BB60BA684FF6FF031340BB60FB681A0278
:101BFC00BB68134343F0BF6343F40033BB60044A38
:101C0C00BB68D36000BF1437BD4680BC704700BFB3
:101C1C0000ED00E080B400AF044BDB681B0A03F05E
:101C2C0007031846BD4680BC704700BF00ED00E0BE
:101C3C0080B483B000AF0346FB7197F90730002BDB
:101C4C000BDBFB7903F01F02064997F907305B09A0
:101C5C00012000FA02F241F8232000BF0C37BD46E8
:101C6C0080BC704700E100E080B483B000AF034655
:101C7C003960FB7197F90730002B0ADB3B68DAB24D
:101C8C000C4997F907301201D2B20B4483F80023A8
:101C9C000AE03B68DAB20849FB7903F00F03043B16
:101CAC001201D2B20B441A7600BF0C37BD4680BC71
:101CBC00704700BF00E100E000ED00E080B489B0A7
:101CCC0000AFF860B9607A60FB6803F00703FB6152
:101CDC00FB69C3F10703042B28BF0423BB61FB6919
:101CEC000433062B02D9FB69033B00E000237B6124
:101CFC004FF0FF32BB6902FA03F3DA43BB681A40B8
:101D0C007B699A404FF0FF317B6901FA03F3D943A9
:101D1C007B680B40134318462437BD4680BC704784
:101D2C0080B582B000AF78607B68013BB3F1807FF7
:101D3C0001D301230FE00A4A7B68013B53600F215A
:101D4C004FF0FF30FFF790FF054B00229A60044BD9
:101D5C0007221A60002318460837BD4680BD00BF15
:101D6C0010E000E080B582B000AF78607868FFF7D3
:101D7C002DFF00BF0837BD4680BD80B586B000AFD3
:101D8C000346B9607A60FB7300237B61FFF742FF67
:101D9C0078617A68B9687869FFF790FF024697F91D
:101DAC000F3011461846FFF75FFF00BF1837BD46CE
:101DBC0080BD80B582B000AF0346FB7197F9073048
:101DCC001846FFF735FF00BF0837BD4680BD80B50C
:101DDC0082B000AF78607868FFF7A2FF0346184620
:101DEC000837BD4680BD000080B48BB000AF786072
:101DFC00396000237B6200233B6269E101227B6A2C
:101E0C0002FA03F3FB613B681B68FA691340BB6180
:101E1C00BA69FB699A4240F058813B685B689A4A00
:101E2C0093425ED0984A934275D8984A934258D0C0
:101E3C00964A93426FD8964A934252D0944A934210
:101E4C0069D8944A93424CD0924A934263D8924AAE
:101E5C00934246D0904A93425DD8122B2AD8122B2B
:101E6C0059D801A252F823F0EF1E0008C91E000831
:101E7C00DB1E00081D1F0008231F0008231F00087D
:101E8C00231F0008231F0008231F0008231F00081E
:101E9C00231F0008231F0008231F0008231F00080E
:101EAC00231F0008231F0008231F0008D11E000851
:101EBC00E51E0008794A934213D02CE03B68DB689E
:101ECC003B6229E03B68DB6804333B6224E03B68FF
:101EDC00DB6808333B621FE03B68DB680C333B621A
:101EEC001AE03B689B68002B02D104233B6213E091
:101EFC003B689B68012B05D108233B627B68FA6920
:101F0C001A6109E008233B627B68FA695A6103E0B5
:101F1C0000233B6200E000BFBB69FF2B01D87B684C
:101F2C0001E07B6804337B61BB69FF2B02D87B6AC1
:101F3C009B0002E07B6A083B9B003B617B691A6853
:101F4C000F213B6901FA03F3DB431A40396A3B6901
:101F5C0001FA03F31A437B691A603B685B6803F070
:101F6C008053002B00F0B1804D4B9B694C4A43F0E1
:101F7C00010393614A4B9B6903F00103BB60BB688F
:101F8C00484A7B6A9B08023352F82330FB607B6A19
:101F9C0003F003039B000F2202FA03F3DB43FA68FE
:101FAC001340FB607B68404A934213D07B683F4AE6
:101FBC0093420DD07B683E4A934207D07B683D4AE2
:101FCC00934201D1032306E0042304E0022302E040
:101FDC00012300E000237A6A02F00302920093408E
:101FEC00FA681343FB602F497B6A9B080233FA683B
:101FFC0041F823203B685B6803F48033002B06D048
:10200C002D4B1A682C49BB6913430B6006E02A4B15
:10201C001A68BB69DB43284913400B603B685B685B
:10202C0003F40033002B06D0234B5A682249BB69BA
:10203C0013434B6006E0204B5A68BB69DB431E49D7
:10204C0013404B603B685B6803F48013002B06D095
:10205C00194B9A681849BB6913438B6006E0164B01
:10206C009A68BB69DB43144913408B603B685B681F
:10207C0003F40013002B21D00F4BDA680E49BB6917
:10208C001343CB6021E000BF000032100000311080
:10209C00000022100000211000001210000011108E
:1020AC00001002400000014000080140000C0140FB
:1020BC000010014000140140000401400B4BDA6891
:1020CC00BB69DB4309491340CB607B6A01337B62FC
:1020DC003B681A687B6A22FA03F3002B7FF48EAEFE
:1020EC0000BF00BF2C37BD4680BC704700040140C8
:1020FC0080B485B000AF78600B467B807B689A68B3
:10210C007B881340002B02D00123FB7301E00023DA
:10211C00FB73FB7B18461437BD4680BC704780B4FC
:10212C0083B000AF78600B467B8013467B707B7866
:10213C00002B03D07A887B681A6103E07B881A0431
:10214C007B681A6100BF0C37BD4680BC704700002D
:10215C0080B586B000AF78607B68002B01D101237D
:10216C006CE27B681B6803F00103002B00F0878096
:10217C00924B5B6803F00C03042B0CD08F4B5B6809
:10218C0003F00C03082B12D18C4B5B6803F48033E7
:10219C00B3F5803F0BD1894B1B6803F40033002B44
:1021AC006CD07B685B68002B68D1012346E27B68AE
:1021BC005B68B3F5803F06D1804B1B687F4A43F4C4
:1021CC00803313602EE07B685B68002B0CD17B4B5B
:1021DC001B687A4A23F480331360784B1B68774A68
:1021EC0023F4802313601DE07B685B68B3F5A02F9C
:1021FC000CD1724B1B68714A43F4802313606F4BF4
:10220C001B686E4A43F4803313600BE06B4B1B6806
:10221C006A4A23F480331360684B1B68674A23F4C3
:10222C00802313607B685B68002B13D0FFF7C4FC22
:10223C00386108E0FFF7C0FC02463B69D31A642BF7
:10224C0001D90323FAE15D4B1B6803F40033002B27
:10225C00F0D014E0FFF7B0FC386108E0FFF7ACFCFD
:10226C0002463B69D31A642B01D90323E6E1534B95
:10227C001B6803F40033002BF0D100E000BF7B6837
:10228C001B6803F00203002B63D04C4B5B6803F01C
:10229C000C03002B0BD0494B5B6803F00C03082B91
:1022AC001CD1464B5B6803F48033002B16D1434B97
:1022BC001B6803F00203002B05D07B681B69012B04
:1022CC0001D00123BAE13D4B1B6823F0F8027B6877
:1022DC005B69DB00394913430B603AE07B681B698F
:1022EC00002B20D0364B01221A60FFF765FC3861B9
:1022FC0008E0FFF761FC02463B69D31A022B01D9B7
:10230C0003239BE12D4B1B6803F00203002BF0D041
:10231C002A4B1B6823F0F8027B685B69DB002749BA
:10232C0013430B6015E0264B00221A60FFF744FCA8
:10233C00386108E0FFF740FC02463B69D31A022BD8
:10234C0001D903237AE11D4B1B6803F00203002B18
:10235C00F0D17B681B6803F00803002B3AD07B6834
:10236C009B69002B19D0174B01221A60FFF724FC34
:10237C00386108E0FFF720FC02463B69D31A022BB8
:10238C0001D903235AE10D4B5B6A03F00203002BC6
:10239C00F0D0012000F0D8FA1CE00A4B00221A60A1
:1023AC00FFF70AFC38610FE0FFF706FC02463B69B9
:1023BC00D31A022B08D9032340E100BF00100240BE
:1023CC0000004242800442429E4B5B6A03F00203CF
:1023DC00002BE9D17B681B6803F00403002B00F091
:1023EC00A6800023FB75974BDB6903F08053002B11
:1023FC000DD1944BDB69934A43F08053D361914BDD
:10240C00DB6903F08053BB60BB680123FB758E4B0B
:10241C001B6803F48073002B18D18B4B1B688A4A02
:10242C0043F480731360FFF7C7FB386108E0FFF7D4
:10243C00C3FB02463B69D31A642B01D90323FDE08D
:10244C00814B1B6803F48073002BF0D07B68DB6836
:10245C00012B06D17B4B1B6A7A4A43F001031362B2
:10246C002DE07B68DB68002B0CD1764B1B6A754A20
:10247C0023F001031362734B1B6A724A23F00403AB
:10248C0013621CE07B68DB68052B0CD16D4B1B6A5F
:10249C006C4A43F0040313626A4B1B6A694A43F0AB
:1024AC00010313620BE0674B1B6A664A23F00103BE
:1024BC001362644B1B6A634A23F0040313627B6848
:1024CC00DB68002B15D0FFF777FB38610AE0FFF7CC
:1024DC0073FB02463B69D31A41F28832934201D90D
:1024EC000323ABE0574B1B6A03F00203002BEED027
:1024FC0014E0FFF761FB38610AE0FFF75DFB024671
:10250C003B69D31A41F28832934201D9032395E0F7
:10251C004C4B1B6A03F00203002BEED1FB7D012B0D
:10252C0005D1484BDB69474A23F08053D3617B6864
:10253C00DB69002B00F08180424B5B6803F00C03DD
:10254C00082B61D07B68DB69022B46D13F4B002204
:10255C001A60FFF731FB386108E0FFF72DFB0246EC
:10256C003B69D31A022B01D9032367E0354B1B6857
:10257C0003F00073002BF0D17B681B6AB3F5803F2E
:10258C0008D1304B5B6823F400327B689B682D4983
:10259C0013434B602B4B5B6823F474127B68196AF2
:1025AC007B685B6A0B43274913434B60274B012223
:1025BC001A60FFF701FB386108E0FFF7FDFA0246ED
:1025CC003B69D31A022B01D9032337E01D4B1B683F
:1025DC0003F00073002BF0D02FE01C4B00221A608C
:1025EC00FFF7EAFA386108E0FFF7E6FA02463B69C2
:1025FC00D31A022B01D9032320E0124B1B6803F0E2
:10260C000073002BF0D118E07B68DB69012B01D142
:10261C00012313E00B4B5B68FB60FB6803F4803217
:10262C007B681B6A9A4206D1FB6803F470127B68C4
:10263C005B6A9A4201D0012300E000231846183748
:10264C00BD4680BD00100240007000406000424258
:10265C0080B584B000AF786039607B68002B01D105
:10266C000123D0E06A4B1B6803F007033A689A42D7
:10267C0010D9674B1B6823F0070265493B6813436D
:10268C000B60634B1B6803F007033A689A4201D056
:10269C000123B8E07B681B6803F00203002B20D0F9
:1026AC007B681B6803F00403002B05D0594B5B6857
:1026BC00584A43F4E06353607B681B6803F00803DB
:1026CC00002B05D0534B5B68524A43F46053536064
:1026DC00504B5B6823F0F0027B689B684D491343B9
:1026EC004B607B681B6803F00103002B40D07B68B8
:1026FC005B68012B07D1474B1B6803F40033002B9D
:10270C0015D101237FE07B685B68022B07D1414B1D
:10271C001B6803F00073002B09D1012373E03D4BC0
:10272C001B6803F00203002B01D101236BE0394B32
:10273C005B6823F003027B685B68364913434B608C
:10274C00FFF73AFAF8600AE0FFF736FA0246FB6840
:10275C00D31A41F28832934201D9032353E02D4B13
:10276C005B6803F00C027B685B689B009A42EBD1C0
:10277C00274B1B6803F007033A689A4210D2244B8C
:10278C001B6823F0070222493B6813430B60204B64
:10279C001B6803F007033A689A4201D0012332E028
:1027AC007B681B6803F00403002B08D0194B5B6893
:1027BC0023F4E0627B68DB68164913434B607B684B
:1027CC001B6803F00803002B09D0124B5B6823F441
:1027DC0060527B681B69DB000E4913434B6000F0B1
:1027EC0021F802460B4B5B681B0903F00F030A49E7
:1027FC00CB5C22FA03F3094A1360094B1B68184699
:10280C00FFF798F9002318461037BD4680BD00BF6E
:10281C0000200240001002409843000820000020D5
:10282C002400002090B48AB000AF2A4B3C1D0FCB83
:10283C0084E80F0040F201233B800023FB6100235E
:10284C00BB6100237B6200237B6100233B62224B34
:10285C005B68FB61FB6903F00C03042B02D0082BB3
:10286C0003D02DE01D4B3B622DE0FB699B0C03F06C
:10287C000F0307F12802134413F8243C7B61FB6916
:10288C0003F48033002B13D0134B5B685B0C03F009
:10289C00010307F12802134413F8283CBB617B6940
:1028AC000E4A02FB03F2BB69B2FBF3F37B6204E05A
:1028BC007B690B4A02FB03F37B627B6A3B6202E09F
:1028CC00064B3B6200BF3B6A18462837BD4690BC9E
:1028DC00704700BF884300080010024000127A00C5
:1028EC0000093D0080B400AF024B1B681846BD4682
:1028FC0080BC70472000002080B500AFFFF7F2FFCE
:10290C000246054B5B681B0A03F007030349CB5CCB
:10291C0022FA03F3184680BD00100240A8430008B9
:10292C0080B500AFFFF7DEFF0246054B5B68DB0AA4
:10293C0003F007030349CB5C22FA03F3184680BD6E
:10294C0000100240A843000880B485B000AF786046
:10295C000A4B1B680A4AA2FB03235B0A7A6802FB38
:10296C0003F3FB6000BFFB685A1EFA60002BF9D121
:10297C0000BF00BF1437BD4680BC7047200000204C
:10298C00D34D621080B582B000AF78607B68002BAD
:10299C0001D1012341E07B6893F83D30DBB2002B81
:1029AC0006D17B68002283F83C207868FEF7F4FEA1
:1029BC007B68022283F83D207B681A687B680433AD
:1029CC001946104600F086FB7B68012283F84620EE
:1029DC007B68012283F83E207B68012283F83F202C
:1029EC007B68012283F840207B68012283F8412018
:1029FC007B68012283F842207B68012283F8432004
:102A0C007B68012283F844207B68012283F84520EF
:102A1C007B68012283F83D20002318460837BD4609
:102A2C0080BD000080B485B000AF78607B6893F8FF
:102A3C003D30DBB2012B01D001233AE07B6802224E
:102A4C0083F83D207B681B68DA687B681B6842F062
:102A5C000102DA607B681B68184A93420ED07B68CF
:102A6C001B68B3F1804F09D07B681B68144A9342F2
:102A7C0004D07B681B68134A934211D17B681B6896
:102A8C009B6803F00703FB60FB68062B10D07B6888
:102A9C001B681A687B681B6842F001021A6007E029
:102AAC007B681B681A687B681B6842F001021A601D
:102ABC00002318461437BD4680BC7047002C0140DB
:102ACC00000400400008004080B582B000AF786080
:102ADC007B68002B01D1012341E07B6893F83D30EA
:102AEC00DBB2002B06D17B68002283F83C2078688F
:102AFC0000F039F87B68022283F83D207B681A6865
:102B0C007B6804331946104600F0E4FA7B68012216
:102B1C0083F846207B68012283F83E207B680122E3
:102B2C0083F83F207B68012283F840207B680122D8
:102B3C0083F841207B68012283F842207B680122C4
:102B4C0083F843207B68012283F844207B680122B0
:102B5C0083F845207B68012283F83D20002318462A
:102B6C000837BD4680BD80B483B000AF786000BF2D
:102B7C000C37BD4680BC704780B582B000AF786022
:102B8C007B681B681B6903F00203022B22D17B6854
:102B9C001B68DB6803F00203022B1BD17B681B68EC
:102BAC006FF002021A617B6801221A777B681B683E
:102BBC009B6903F00303002B03D0786800F06FFAD5
:102BCC0005E0786800F062FA786800F071FA7B68CA
:102BDC0000221A777B681B681B6903F00403042B23
:102BEC0022D17B681B68DB6803F00403042B1BD128
:102BFC007B681B686FF004021A617B6802221A77EB
:102C0C007B681B689B6903F44073002B03D07868C6
:102C1C0000F045FA05E0786800F038FA786800F0C2
:102C2C0047FA7B6800221A777B681B681B6903F0E4
:102C3C000803082B22D17B681B68DB6803F00803B0
:102C4C00082B1BD17B681B686FF008021A617B682C
:102C5C0004221A777B681B68DB6903F00303002BE3
:102C6C0003D0786800F01BFA05E0786800F00EFAE3
:102C7C00786800F01DFA7B6800221A777B681B6865
:102C8C001B6903F01003102B22D17B681B68DB68D7
:102C9C0003F01003102B1BD17B681B686FF0100224
:102CAC001A617B6808221A777B681B68DB6903F45E
:102CBC004073002B03D0786800F0F1F905E07868D8
:102CCC0000F0E4F9786800F0F3F97B6800221A77D9
:102CDC007B681B681B6903F00103012B0ED17B6819
:102CEC001B68DB6803F00103012B07D17B681B68B1
:102CFC006FF001021A617868FEF75CFB7B681B6859
:102D0C001B6903F08003802B0ED17B681B68DB688A
:102D1C0003F08003802B07D17B681B686FF0800267
:102D2C001A61786800F0BDFC7B681B681B6903F0B6
:102D3C004003402B0ED17B681B68DB6803F040031B
:102D4C00402B07D17B681B686FF040021A617868D2
:102D5C0000F0B7F97B681B681B6903F02003202B7C
:102D6C000ED17B681B68DB6803F02003202B07D196
:102D7C007B681B686FF020021A61786800F088FC91
:102D8C0000BF0837BD4680BD80B584B000AFF86089
:102D9C00B9607A60FB6893F83C30012B01D10223B7
:102DAC00ACE0FB68012283F83C207B680C2B00F222
:102DBC009F8001A252F823F0F92D0008FD2E000887
:102DCC00FD2E0008FD2E0008392E0008FD2E0008EF
:102DDC00FD2E0008FD2E00087B2E0008FD2E00089D
:102DEC00FD2E0008FD2E0008BB2E0008FB681B689A
:102DFC00B968184600F0D0F9FB681B689A69FB6843
:102E0C001B6842F008029A61FB681B689A69FB68B0
:102E1C001B6822F004029A61FB681B689969BB6805
:102E2C001A69FB681B680A439A6162E0FB681B68BD
:102E3C00B968184600F016FAFB681B689A69FB68BB
:102E4C001B6842F400629A61FB681B689A69FB6814
:102E5C001B6822F480629A61FB681B689969BB68E5
:102E6C001B691A02FB681B680A439A6141E0FB6804
:102E7C001B68B968184600F05FFAFB681B68DA69D2
:102E8C00FB681B6842F00802DA61FB681B68DA69B0
:102E9C00FB681B6822F00402DA61FB681B68D969C5
:102EAC00BB681A69FB681B680A43DA6121E0FB689E
:102EBC001B68B968184600F0A9FAFB681B68DA6948
:102ECC00FB681B6842F40062DA61FB681B68DA6914
:102EDC00FB681B6822F48062DA61FB681B68D969A5
:102EEC00BB681B691A02FB681B680A43DA6100E0C5
:102EFC0000BFFB68002283F83C20002318461037E3
:102F0C00BD4680BD80B584B000AF786039607B6809
:102F1C0093F83C30012B01D10223B3E07B680122F2
:102F2C0083F83C207B68022283F83D207B681B6879
:102F3C009B68FB60FB6823F07703FB60FB6823F462
:102F4C007F43FB607B681B68FA689A603B681B6870
:102F5C00B3F5005F3ED0B3F5005F00F28780B3F5A8
:102F6C00805F00F08580B3F5805F7FD8702B1AD01E
:102F7C00702B7BD8602B50D0602B77D8502B3CD04B
:102F8C00502B73D8402B58D0402B6FD8302B64D09B
:102F9C00302B6BD8202B60D0202B67D8002B5CD02B
:102FAC00102B5AD062E07B6818683B6899683B68C4
:102FBC005A683B68DB6800F0EEFA7B681B689B681C
:102FCC00FB60FB6843F07703FB607B681B68FA6867
:102FDC009A604EE07B6818683B6899683B685A6851
:102FEC003B68DB6800F0D7FA7B681B689A687B68E3
:102FFC001B6842F480429A603BE07B6818683B682F
:10300C0059683B68DB681A4600F04EFA7B681B680F
:10301C005021184600F0A5FA2BE07B6818683B6835
:10302C0059683B68DB681A4600F06CFA7B681B68D1
:10303C006021184600F095FA1BE07B6818683B6825
:10304C0059683B68DB681A4600F02EFA7B681B68EF
:10305C004021184600F085FA0BE07B681A683B6843
:10306C001B681946104600F07CFA02E000BF00E035
:10307C0000BF7B68012283F83D207B68002283F827
:10308C003C20002318461037BD4680BD80B483B069
:10309C0000AF786000BF0C37BD4680BC704780B471
:1030AC0083B000AF786000BF0C37BD4680BC704762
:1030BC0080B483B000AF786000BF0C37BD4680BCD5
:1030CC00704780B483B000AF786000BF0C37BD464A
:1030DC0080BC704780B485B000AF786039607B6885
:1030EC001B68FB607B68294A93420BD07B68B3F169
:1030FC00804F07D07B68264A934203D07B68254AD1
:10310C00934208D1FB6823F07003FB603B685B685B
:10311C00FA681343FB607B681C4A93420BD07B68B4
:10312C00B3F1804F07D07B68194A934203D07B6878
:10313C00184A934208D1FB6823F44073FB603B6848
:10314C00DB68FA681343FB60FB6823F080023B6882
:10315C005B691343FB607B68FA681A603B689A688A
:10316C007B68DA623B681A687B689A627B68074AFC
:10317C00934203D13B681A697B681A637B6801220E
:10318C005A6100BF1437BD4680BC7047002C01400B
:10319C00000400400008004080B487B000AF7860A5
:1031AC0039607B681B6A23F001027B681A627B68BA
:1031BC001B6A7B617B685B683B617B689B69FB601E
:1031CC00FB6823F07003FB60FB6823F00303FB60D8
:1031DC003B681B68FA681343FB607B6923F00203AE
:1031EC007B613B689B687A6913437B617B681C4AF3
:1031FC0093420CD17B6923F008037B613B68DB684D
:10320C007A6913437B617B6923F004037B617B68E0
:10321C00134A934211D13B6923F480733B613B69A0
:10322C0023F400733B613B685B693A6913433B6170
:10323C003B689B693A6913433B617B683A695A6006
:10324C007B68FA689A613B685A687B685A637B684A
:10325C007A691A6200BF1C37BD4680BC704700BF3C
:10326C00002C014080B487B000AF786039607B6877
:10327C001B6A23F010027B681A627B681B6A7B61F5
:10328C007B685B683B617B689B69FB60FB6823F434
:10329C00E043FB60FB6823F44073FB603B681B68F6
:1032AC001B02FA681343FB607B6923F020037B61EC
:1032BC003B689B681B017A6913437B617B681D4AE1
:1032CC0093420DD17B6923F080037B613B68DB6803
:1032DC001B017A6913437B617B6923F040037B619B
:1032EC007B68144A934213D13B6923F480633B619E
:1032FC003B6923F400633B613B685B699B003A6963
:10330C0013433B613B689B699B003A6913433B61E8
:10331C007B683A695A607B68FA689A613B685A68BC
:10332C007B689A637B687A691A6200BF1C37BD465A
:10333C0080BC7047002C014080B487B000AF78602F
:10334C0039607B681B6A23F480727B681A627B6825
:10335C001B6A7B617B685B683B617B68DB69FB603C
:10336C00FB6823F07003FB60FB6823F00303FB6036
:10337C003B681B68FA681343FB607B6923F400739A
:10338C007B613B689B681B027A6913437B617B689A
:10339C001D4A93420DD17B6923F400637B613B682A
:1033AC00DB681B027A6913437B617B6923F48063BE
:1033BC007B617B68144A934213D13B6923F480539D
:1033CC003B613B6923F400533B613B685B691B0128
:1033DC003A6913433B613B689B691B013A69134390
:1033EC003B617B683A695A607B68FA68DA613B68D2
:1033FC005A687B68DA637B687A691A6200BF1C378B
:10340C00BD4680BC704700BF002C014080B487B023
:10341C0000AF786039607B681B6A23F480527B684C
:10342C001A627B681B6A3B617B685B687B617B68AB
:10343C00DB69FB60FB6823F4E043FB60FB6823F46F
:10344C004073FB603B681B681B02FA681343FB600C
:10345C003B6923F400533B613B689B681B033A694F
:10346C0013433B617B680F4A934209D17B6923F478
:10347C0080437B613B685B699B017A6913437B6189
:10348C007B687A695A607B68FA68DA613B685A68CB
:10349C007B681A647B683A691A6200BF1C37BD46A8
:1034AC0080BC7047002C014080B487B000AFF8603E
:1034BC00B9607A60FB681B6A7B61FB681B6A23F04E
:1034CC000102FB681A62FB689B693B613B6923F054
:1034DC00F0033B617B681B013A6913433B617B69D9
:1034EC0023F00A037B617A69BB6813437B61FB6839
:1034FC003A699A61FB687A691A6200BF1C37BD464B
:10350C0080BC704780B487B000AFF860B9607A6057
:10351C00FB681B6A23F01002FB681A62FB689B694C
:10352C007B61FB681B6A3B617B6923F470437B61A5
:10353C007B681B037A6913437B613B6923F0A0030F
:10354C003B61BB681B013A6913433B61FB687A69B9
:10355C009A61FB683A691A6200BF1C37BD4680BC91
:10356C00704780B485B000AF786039607B689B6829
:10357C00FB60FB6823F07003FB603A68FB68134345
:10358C0043F00703FB607B68FA689A6000BF14374E
:10359C00BD4680BC704780B487B000AFF860B9609E
:1035AC007A603B60FB689B687B617B6923F47F439B
:1035BC007B613B681A027B681A43BB6813437A69C8
:1035CC0013437B61FB687A699A6000BF1C37BD4668
:1035DC0080BC704780B485B000AF786039607B6880
:1035EC0093F83C30012B01D1022346E07B68012289
:1035FC0083F83C207B68022283F83D207B681B68A3
:10360C005B68FB607B681B689B68BB60FB6823F096
:10361C007003FB603B681B68FA681343FB607B68B4
:10362C001B68FA685A607B681B68164A93420ED076
:10363C007B681B68B3F1804F09D07B681B68124A0A
:10364C00934204D07B681B68104A93420CD1BB6830
:10365C0023F08003BB603B685B68BA681343BB60B4
:10366C007B681B68BA689A607B68012283F83D20EE
:10367C007B68002283F83C20002318461437BD4693
:10368C0080BC7047002C0140000400400008004042
:10369C0080B483B000AF786000BF0C37BD4680BCEF
:1036AC00704780B483B000AF786000BF0C37BD4664
:1036BC0080BC704780B582B000AF78607B68002B0F
:1036CC0001D101233FE07B6893F83D30DBB2002B46
:1036DC0006D17B68002283F83C207868FEF7C6F898
:1036EC007B68242283F83D207B681B68DA687B6842
:1036FC001B6822F40052DA60786800F005F97B68E8
:10370C001B681A697B681B6822F490421A617B68FB
:10371C001B685A697B681B6822F02A025A617B6815
:10372C001B68DA687B681B6842F40052DA607B68BD
:10373C0000221A647B68202283F83D207B682022BB
:10374C0083F83E20002318460837BD4680BD80B55F
:10375C008AB002AFF860B9603B601346FB8000236F
:10376C007B61FB6893F83D30DBB2202B7CD1BB68CE
:10377C00002B02D0FB88002B01D1012375E0FB68E4
:10378C0093F83C30012B01D102236EE0FB6801223F
:10379C0083F83C20FB6800221A64FB68212283F822
:1037AC003D20FEF709FA7861FB68FA889A84FB6879
:1037BC00FA88DA84FB689B68B3F5805F08D1FB68F4
:1037CC001B69002B04D10023FB61BB68BB6103E0C8
:1037DC00BB68FB610023BB61FB68002283F83C20C3
:1037EC002AE03B6800937B6900228021F86800F096
:1037FC0040F80346002B01D0032336E0FB69002B75
:10380C000BD1BB691B881A46FB681B68C2F3080204
:10381C005A60BB690233BB6107E0FB691A78FB682D
:10382C001B685A60FB690133FB61FB68DB8C9BB244
:10383C00013B9AB2FB68DA84FB68DB8C9BB2002BF1
:10384C00CFD13B6800937B6900224021F86800F0DF
:10385C0010F80346002B01D0032306E0FB6820225E
:10386C0083F83D20002300E0022318462037BD4694
:10387C0080BD80B584B000AFF860B9603B60134682
:10388C00FB712CE0BB69B3F1FF3F28D0BB69002B67
:10389C0007D0FEF791F902463B68D31ABA699A42EF
:1038AC001DD2FB681B68DA68FB681B6822F4D072B7
:1038BC00DA60FB681B685A69FB681B6822F001021E
:1038CC005A61FB68202283F83D20FB68202283F894
:1038DC003E20FB68002283F83C2003230FE0FB68AA
:1038EC001B681A68BB681340BA689A420CBF012364
:1038FC000023DBB21A46FB799A42C3D00023184648
:10390C001037BD4680BD000080B584B000AF786034
:10391C007B681B681B6923F440517B68DA687B6801
:10392C001B680A431A617B689A687B681B691A4397
:10393C007B685B691343BB607B681B68DB6823F4A3
:10394C00B05323F00C037A681268B9680B43D36048
:10395C007B681B685B6923F440717B689A697B68A0
:10396C001B680A435A617B681B682C4A934203D13B
:10397C00FEF7D6FFF86002E0FEF7BEFFF860FA68CB
:10398C0013469B0013449A001A447B685B689B00A7
:10399C00B2FBF3F3224AA2FB03235B091901FA6879
:1039AC0013469B0013449A001A447B685B689B0087
:1039BC00B2FBF3F21A4BA3FB02035B09642000FB7E
:1039CC0003F3D31A1B013233154AA2FB03235B0901
:1039DC0003F0F0031944FA6813469B0013449A0051
:1039EC001A447B685B689B00B2FBF3F20C4BA3FBA5
:1039FC0002035B09642000FB03F3D31A1B0132336F
:103A0C00074AA2FB03235B0903F00F027B681B68C8
:103A1C000A449A6000BF1037BD4680BD0038014093
:103A2C001F85EB51014B1868704700BF2C0000201C
:103A3C0070B500260C4D0D4C641BA410A64209D188
:103A4C0000F05CFC00260A4D0A4C641BA410A64234
:103A5C0005D170BD55F8043B98470136EEE755F893
:103A6C00043B98470136F2E7E4430008E4430008BE
:103A7C00E4430008E843000803460244934200D1A3
:103A8C00704703F8011BF9E70EB46FF0004100B565
:103A9C009CB01DAB0290069007910491084809490F
:103AAC0053F8042B0591006802A9019300F068F803
:103ABC000022029B1A701CB05DF804EB03B0704737
:103ACC002C0000200802FFFF2DE9F0478E6882468B
:103ADC009E420C4690461F4638D88A8912F4906F45
:103AEC0032D0256809690133A5EB010965694B449E
:103AFC0005EB450505EBD5756D109D4238BF1D4690
:103B0C00530531D5294600F053FB064650B90C231A
:103B1C004FF0FF30CAF80030A38943F04003A38173
:103B2C00BDE8F0874A46216900F0CEFAA38923F458
:103B3C00906343F08003A38126614E4426603E4689
:103B4C006561A5EB0905A560BE4200D93E4632462B
:103B5C004146206800F0C6FAA36822689B1B3244D9
:103B6C000020A3602260DBE72A4600F07BFB0646C0
:103B7C000028E1D15046216900F0CEFAC7E70000D9
:103B8C002DE9F04F98468B8907461B060D461446C7
:103B9C009DB00ED50B6963B9402100F009FB28607C
:103BAC00286120B90C233B604FF0FF30D1E040235B
:103BBC006B610023099320238DF8293030234FF0BB
:103BCC000109CDF80C80DFF8A4818DF82A3023464A
:103BDC009A4613F8012B0AB1252AF9D1BAEB040B3A
:103BEC000BD05B46224629463846FFF76DFF013065
:103BFC0000F0AA80099A5A4409929AF80030002BD6
:103C0C0000F0A28000234FF0FF32CDE905230AF12A
:103C1C00010A049307938DF853301A9354460522E6
:103C2C0014F8011B514800F041FA049AD8B9D00697
:103C3C0044BF20238DF85330110744BF2B238DF83C
:103C4C0053309AF800302A2B15D0544600204FF0F0
:103C5C000A0C079A214611F8013B303B092B4ED92F
:103C6C00B0B1079214E0A0EB080309FA03F3134375
:103C7C00A2460493D2E7039B191D1B680391002BEA
:103C8C00BBBF5B4242F0020207930793B8BF04929A
:103C9C0023782E2B0CD163782A2B35D1039B02343D
:103CAC001A1D1B680392002BB8BF4FF0FF3305930E
:103CBC00DFF8C8A003225046217800F0F7F940B194
:103CCC004023A0EB0A0003FA00F0049B01340343E9
:103CDC00049314F8011B062225488DF8281000F0D7
:103CEC00E5F9002838D0234B1BBB039B073323F08B
:103CFC00070308330393099B3344099367E70C4686
:103D0C0001200CFB0232A5E700234FF00A0C1946E8
:103D1C0001340593204610F8012B303A092A03D9B7
:103D2C00002BC5D00591C3E7044601230CFB0121F0
:103D3C00F0E703AB00932A4638460F4B04A9AFF3C8
:103D4C000080421C0646D6D1AB895B063FF52CAFF2
:103D5C0009981DB0BDE8F08F03AB00932A46384696
:103D6C00054B04A900F07CF8EBE700BFB04300085A
:103D7C00BA43000800000000D53A0008B64300081A
:103D8C002DE9F047164699468A680B690746934217
:103D9C00B8BF1346336091F843200C46DDF8208001
:103DAC000AB1013333602368990642BF336802338A
:103DBC003360256815F0060506D104F1190AE3688D
:103DCC0032689B1AAB4228DC94F84320131E2268FD
:103DDC0018BF012392062DD44946384604F14302FC
:103DEC00C047013020D02368E56803F00603042B9C
:103DFC0018BF002532684FF00006A36808BFAD1A43
:103E0C00226908BF25EAE5759342C4BF9B1AED18D9
:103E1C001A34B5421AD1002008E001235246494613
:103E2C003846C047013003D14FF0FF30BDE8F08772
:103E3C000135C4E73020E11881F843005A1C94F88E
:103E4C0045102244023382F84310C5E70123224671
:103E5C0049463846C0470130E6D00136D9E7000064
:103E6C002DE9FF470C46277E9146782F80469A46CF
:103E7C000C9904F1430207D8622F0AD8002F00F0E6
:103E8C00D980582F00F0A48004F1420684F84270C7
:103E9C003AE0A7F16303152BF6D801A050F823F0F4
:103EAC00053F0008193F0008953E0008953E0008A4
:103EBC00953E0008953E0008193F0008953E000805
:103ECC00953E0008953E0008953E000827400008E6
:103EDC00493F000809400008953E0008953E00083F
:103EEC0049400008953E0008493F0008953E0008EF
:103EFC00953E0008114000080B6804F142061A1D9B
:103F0C001B680A6084F842300123A4E02568086825
:103F1C002E0600F104030AD505680B60002D03DAA8
:103F2C002D236D4284F843300A235E4819E015F0C6
:103F3C00400F05680B6018BF2DB2EFE70B682568C2
:103F4C00181D0860280601D51D6802E06906FBD51E
:103F5C001D886F2F0CBF08230A235248002184F8B8
:103F6C0043106668002EA8BF2168A660A4BF21F08C
:103F7C00040121600DB9002E4DD01646B5FBF3F1AE
:103F8C0003FB1157C75D06F8017D2F46BB420D465A
:103F9C00F4D9082B0BD12368DF0708D52369616896
:103FAC009942DEBF302306F8013C06F1FF36921B26
:103FBC0022614B4621464046CDF800A003AAFFF7EC
:103FCC00DFFE01304CD14FF0FF3004B0BDE8F0877C
:103FDC00344884F845700E68236856F8045B1F0655
:103FEC000E6014D5D90744BF43F0200323601DB9DC
:103FFC00236823F0200323601023AFE7236843F0EA
:10400C00200323607823284884F84530E3E75E06D4
:10401C0048BFADB2E6E71646BBE70B6826681D1D28
:10402C0060690D6035061B6801D5186002E07106E9
:10403C00FBD51880002316462361BAE70B681A1DBE
:10404C000A601E6800213046626800F02FF808B143
:10405C00801B606063682361002384F84330A8E709
:10406C003246494640462369D0470130ABD02368DD
:10407C009B0713D4E068039B9842B8BF1846A4E78B
:10408C000123324649464046D04701309BD001358A
:10409C00E36803995B1AAB42F2DCEBE7002504F111
:1040AC001906F5E7C1430008D2430008034610B5D2
:1040BC00C9B202449342184601D1002003E00478AF
:1040CC0001338C42F6D110BD0A44914200F1FF330A
:1040DC0000D1704710B511F8014B914203F8014F14
:1040EC00F9D110BD884210B501EB020402D984420B
:1040FC00234607D8431EA14208D011F8012B03F820
:10410C00012FF8E7014602448A4200D110BD13F892
:10411C00014D02F8014DF7E738B50546002943D0AB
:10412C0051F8043C0C1F002BB8BFE41800F0D0F879
:10413C001E4A1368104633B9636014602846BDE804
:10414C00384000F0CBB8A3420AD9216862189342D8
:10415C0001BF1A685B685218226063600460EDE767
:10416C001A465B680BB1A342FAD911685018A042E9
:10417C000BD120680144501883421160DED11868BD
:10418C005B68014411605360D8E702D90C232B60A3
:10419C00D4E7206821188B4201BF19685B680918A5
:1041AC00216063605460C9E738BD00BFF000002097
:1041BC00F8B5CD1C25F0030508350C2D38BF0C25A2
:1041CC00002D064601DBA94203D90C2333600020E5
:1041DC00F8BD00F07DF821490A6814469CB9204FBF
:1041EC003B6823B92146304600F062F83860294616
:1041FC00304600F05DF8431C23D10C23304633606D
:10420C0000F06CF8E3E723685B1B17D40B2B03D986
:10421C0023601C44256004E06368A2420CBF0B6061
:10422C005360304600F05AF804F10B00231D20F0C7
:10423C000700C21ACCD01B1AA350C9E722466468E7
:10424C00CCE7C41C24F00304A042E3D0211A30466E
:10425C0000F02EF80130DDD1CFE700BFF0000020D8
:10426C00F4000020F8B5074614460E4621B9114655
:10427C00BDE8F840FFF79CBF22B9FFF74DFF25467C
:10428C002846F8BD00F030F8A0420FD2214638463F
:10429C00FFF78EFF05460028F2D031462246FFF785
:1042AC0013FF31463846FFF737FFE9E73546E7E7B6
:1042BC0038B50023054D044608462B60FDF752FB2C
:1042CC00431C02D12B6803B1236038BD18050020B4
:1042DC00014800F011B800BF20050020014800F093
:1042EC000CB800BF2005002051F8043C181F002B0F
:1042FC00BCBF0B58C018704770477047F8B500BF6B
:10430C00F8BC08BC9E467047F8B500BFF8BC08BCAA
:04431C009E46704702
:1043200048454C4C4F0D000074696D656F75743ACB
:104330002025640D0000000074696D655F503A200F
:1043400025640D004D6F64653A2025640D00000062
:1043500074696D653A2025640D00000074696D650F
:104360005F313A2025640D0074696D655F323A2033
:1043700025640D004552524F5220312072657365FD
:10438000742054494D450D00020304050607080931
:104390000A0B0C0D0E0F10100000000000000000B2
:1043A00001020304060708090000000001020304DB
:1043B000232D302B2000686C4C006566674546470E
:1043C0000030313233343536373839414243444591
:1043D0004600303132333435363738396162636400
:0443E000656600000E
:0443E400310100089B
:0443E8000D010008BB
:1043EC00630000006300000063000000225B6001BA
:1043FC00E8030000BC0200002C010000E8030000F0
:10440C000024F40010000000010000003000002027
:10441C000000000000000000000000000000000090
:10442C000000000000000000000000000000000080
:10443C000000000000000000000000000000000070
:10444C000000000000000000000000000000000060
:10445C000000000000000000000000000000000050
:10446C000000000000000000000000000000000040
:0400000508001AC90C
:00000001FF
